:0A01B1005465737421204E6F77002F
:10015B007BFF7A0179B17F0112006E7D3C7F6402D7
:02016B0000038F
:0B01A6001200F71200C612015B80FB84
:10016D00C2A5D2A6C2A77580FFD2A7E58020E7F071
:01017D00225F
:07013100ECC4540F4480FFF1
:0E01380012016DC2A5C2A6D2A78F80C2A72257
:0E017E0012016DD2A5C2A6D2A78F80C2A72201
:0D018C0012016DD2A5D2A6D2A7AF80C2A7E6
:010199002243
:1000F700D2A3D2A47F301201387F011201380F1228
:1001070001387F0C1201387F011201387F06020186
:0101170038AF
:08006E008F088B098A0A890B37
:10007600120146AE07E508B40105750C80801CE543
:1000860008B40205750C908012E508B40305750CDA
:10009600888008E508B40403750C98AF0C12013883
:1000A600E4FDEDC39E5018AB09050BE50BAA0A70DB
:0F00B60002050A14F9120118FF12017E0D80E3F2
:0100C5002218
:1000C6007F34120138E4FEE4FDED4480FF1201386E
:1000D600EE4480FF120138E4FF12017E12017E0D0C
:1000E600BD20E60EBE10E07F361201387F300201D9
:0100F60038D1
:02000300AC0748
:100005007508807509007F36120138EDD3942040BC
:100015000874E02DFD74802CFCEC540FFFE509AE4F
:1000250008A807088005CEC313CE13D8F9F5098EA5
:1000350008120131ED4480FF12013812018CAE0720
:1000450012018CAB07E5084BFE12018CEF4509FB4D
:10005500ED4480FF120138120131AF0612017EAF67
:090065000312017E7F3002013814
:0701BB008F0D8D0E8B0F224A
:0300000002019A60
:0C019A00787FE4F6D8FD7581100201A604
:10011800BB010689828A83E0225002E722BBFE02E5
:09012800E32289828A83E4932218
:10014600E4FFFE120118600C0FEF70010E09E97052
:05015600F20A80EF2217
:00000001FF
