:100000000205008F218D228B238A2489251204ABBF
:100010008E2A8F2B75300175310885223285213368
:10002000E527452660030200CBF528F529C3E5291D
:10003000952BE528952A40030202CDE52975F006A7
:10004000A42533F521853222AB23AA24A9258529AD
:100050008285288312036424E0FFE434FFFEEF78F6
:1000600003C333CE33CED8F9F52D8E2CE4F52EF51F
:100070002FE52FC395315045052FE52EC395305000
:1000800028052E7417252DF5827405352CF583E48B
:1000900093FBAD22AF211203C2052DE52D700205A1
:1000A0002C74082521F52180D1E52E75F008A4FFD8
:1000B000C3E5219FF521E4F52E052280B40529E54D
:1000C00029600302002D052802002DE527645A450A
:1000D000266003020175F528F529C3E529952BE56E
:1000E00028952A40030202CD853321E52975F006C3
:1000F000A42532F522AB23AA24A9258529828528A7
:100100008312036424E0FFE434FFFEEF7803C3337B
:10011000CE33CED8F9F52D8E2CE4F52EF52FE52F24
:10012000C395315045052FE52EC395305028052E37
:100130007417252DF5827405352CF583E493FBADFA
:1001400022AF211203ED052DE52D7002052C740858
:100150002522F52280D1E52E75F008A4FFC3E52203
:100160009FF522E4F52E152180B40529E5297002BA
:1001700005280200DAE52764B44526600302021F61
:10018000F528F529C3E529952BE528952A40030292
:1001900002CDE52975F006A4FFC3E5339FF521855F
:1001A0003222AB23AA24A92585298285288312031C
:1001B0006424E0FFE434FFFEEF7803C333CE33CE94
:1001C000D8F9F52D8E2CE4F52EF52FE52FC39531BA
:1001D0005042052FE52EC395305028052E74172563
:1001E0002DF5827405352CF583E493FBAD22AF2108
:1001F000120418052DE52D7002052C74F82521F543
:100200002180D1E52E75F008A42521F521E4F52EF5
:10021000152280B70529E52970020528020184E529
:1002200027640E7004E526640160030202CDF52800
:10023000F529C3E529952BE528952A40030202CD2F
:10024000853321E52975F006A4FFC3E5329FF52229
:10025000AB23AA24A9258529828528831203642437
:10026000E0FFE434FFFEEF7803C333CE33CED8F99A
:10027000F52D8E2CE4F52EF52FE52FC39531504248
:10028000052FE52EC395305028052E7417252DF522
:10029000827405352CF583E493FBAD22AF21120463
:1002A00043052DE52D7002052C74F82522F52280DA
:1002B000D1E52E75F008A42522F522E4F52E0521BE
:1002C00080B70529E5297002052802023222E500DF
:1002D0002500FDAC07ECC39400406FECD3947F5035
:1002E00069EDC394004063EDD3943F505D75368053
:1002F0007537007F3612049DEDC39420400874E0EA
:100300002DFD74802CFCEC540FFFE537AE36A807AA
:10031000088005CEC313CE13D8F9F5378E361204F4
:100320008F1204F28F381204F2AB07E5364BF53822
:100330001204F2EF4537F53912048FAF381204E496
:10034000AF391204E47F3012049D22BB010689827A
:100350008A83E0225002E722BBFE02E32289828ADE
:1003600083E49322BB010CE58229F582E5833AF50B
:1003700083E0225006E92582F8E622BBFE06E92545
:1003800082F8E222E58229F582E5833AF583E49357
:10039000227F3412049DE4FEE4FDED4480FF12044C
:1003A0009DEE4480FF12049DE4FF1204E41204E475
:1003B0000DBD20E60EBE10E07F3612049D7F300298
:1003C000049D8D348B35AA077908E9D39400401C2D
:1003D00019E535A801088002C313D8FC1392003038
:1003E0000007AF02AD341202D30A80DE228F348BB5
:1003F00035AA057908E9D39400401C19E535A80110
:10040000088002C313D8FC139200300007AD02AF7E
:10041000341202D30A80DE228D348B35AA07790884
:10042000E9D39400401C19E535A801088002C313E4
:10043000D8FC139200300007AF02AD341202D31A79
:1004400080DE228F348B35AA057908E9D3940040E9
:100450001C19E535A801088002C313D8FC139200CB
:10046000300007AD02AF341202D31A80DE22D2A3CD
:10047000D2A47F3012049D7F0112049D0F12049DAF
:100480007F0C12049D7F0112049D7F0602049DEDE6
:100490004480FF12049DECC4540F4480FF1204D327
:1004A000C2A5C2A68F80D2A7C2A722E4FFFE120374
:1004B0004B600C0FEF70010E09E970F20A80EF2219
:1004C0007BFF7A08790F75260175270E7D147F143E
:1004D000020003C2A5D2A6C2A77580FFD2A7E580FD
:1004E00020E7F0221204D3D2A5C2A68F80D2A7C2E1
:1004F000A7221204D3D2A5D2A6D2A7AF80C2A72228
:10050000787FE4F6D8FD75813902050C12046E126D
:1005100003911204C080FE000000000000000020D3
:1005200020202020002000505050000000000050EB
:1005300050F850F85050002078C07028F02000C0CB
:10054000C810204098180040A0A040A89068003033
:1005500020400000000000102040404020100040DB
:100560002010101020400020A8702070A82000202B
:100570002020F820202000000000006040800000C3
:100580000000F800000000000000000060600000B3
:1005900008102040800000708898A8C8887000204B
:1005A00060202020207000708808304080F800F81B
:1005B0000810300888700010305090F8101000F8C3
:1005C00080F00808887000384080F088887000F853
:1005D0000810204040400070888870888870007043
:1005E0008888780810E0000060600060600000000B
:1005F000606000606080001020408040201000009B
:1006000000F800F8000000402010081020400070A2
:10061000881020200020007088B8A8B880780020BA
:10062000508888F8888800F08888F08888F0007002
:1006300088808080887000F08888888888F000F83A
:100640008080F08080F800F88080F08080800070EA
:10065000888080B8887800888888F88888880070C2
:10066000202020202070003810101010906000888A
:1006700090A0C0A0908800808080808080F8008852
:10068000D8A8A8888888008888C8A8988888007012
:1006900088888888887000F08888F0808080007062
:1006A000888888A8906800F08888F0A090880070FA
:1006B00088807008887000F8202020202020008882
:1006C0008888888888700088888888885020008872
:1006D0008888A8A8D88800888850205088880088F2
:1006E00088502020202000F80810204080F800F0DA
:1006F000C0C0C0C0C0F000008040201008000078DA
:10070000181818181878002070A820202020000041
:100710002040F840200000201008000000000000E9
:1007200000E010709068008080B0C888C8B00000F9
:1007300000708880807000080868988898680000B9
:10074000007088F0807000304840F0404040000069
:10075000007088887808F08080B0C8888888002079
:1007600000002020202000100000301010106080B9
:100770008090A0C0A0980060202020202070000061
:100780000050A8A8A8A8000000B0484848480000A9
:10079000007088888870000000F08888F0808000F1
:1007A000007888887808080000B048404040000081
:1007B0000078807008F0004040F840404830000069
:1007C0000090909090680000008888885020000079
:1007D00000A8A8A8A8500000008850205088000059
:1007E000008888986808F00000F8102040F8002081
:1007F0004040804040200020202000202020002079
:1008000010100810102000000040A8100000005434
:040810006573740098
:00000001FF
