:10000000020204E5002500FDAC07ECC39400406F3C
:10001000ECD3947F5069EDC394004063EDD3943FDB
:10002000505D7515807516007F361201B4EDC394CE
:1000300020400874E02DFD74802CFCEC540FFFE58B
:1000400016AE15A807088005CEC313CE13D8F9F550
:10005000168E151201A61201F68F171201F6AB07C4
:10006000E5154BF5171201F6EF4516F5181201A626
:10007000AF171201E8AF181201E87F301201B42265
:100080008F088D098B0AE4F50FF510F511F512E5CF
:100090000A131313541FF50AE510C3950B504305BB
:1000A00010E50FC3950A5029050FAB0CAA0DA90E38
:1000B0008512828511831200FCFBAD09AF08120185
:1000C0005A0512E5127002051174F82509F5098028
:1000D000D0E50F75F008A42509F509E4F50F05082A
:1000E00080B622BB010689828A83E0225002E72281
:1000F000BBFE02E32289828A83E49322BB010CE5E2
:100100008229F582E5833AF583E0225006E92582CB
:10011000F8E622BBFE06E92582F8E222E58229F50F
:1001200082E5833AF583E493227F341201B4E4FE3E
:10013000E4FDED4480FF1201B4EE4480FF1201B4EF
:10014000E4FF1201E81201E80DBD20E60EBE10E04A
:100150007F361201B47F300201B48F138B14AA05CD
:100160007908E9D39400401C19E514A8010880021D
:10017000C313D8FC139200300007AD02AF13120076
:10018000081A80DE22D2A3D2A47F301201B47F01EC
:100190001201B40F1201B47F0C1201B47F011201DD
:1001A000B47F060201B4ED4480FF1201B4ECC454E4
:1001B0000F4480FF1201D7C2A5C2A6D2A78F80C26A
:1001C000A722750B08750CFF750D02750E1B7B10B1
:1001D0007D117F11020080C2A5D2A6C2A77580FF43
:1001E000D2A7E58020E7F0221201D7D2A5C2A6D27D
:1001F000A78F80C2A7221201D7D2A5D2A6D2A7AFBD
:1002000080C2A722787FE4F6D8FD75812002021013
:100210001201851201291201C280FEFFFFFEFFFCC0
:10022000FFF8FFF0FFE0FFC00180018001C001E0A6
:0B023000FFF0FFF8FFFCFFFEFFFFFFE8
:00000001FF
