:0C00B3005465737421204E6F77202000EC
:100087001200447BFF7A0079B37F0412000380FEDD
:10007600C2A5D2A6C2A77580FFD2A7E58020E7F069
:010086002257
:0E009700120076C2A5C2A6D2A78F80C2A722F1
:0E00A500120076D2A5C2A6D2A78F80C2A722D3
:10004400D2A47F301200971200977F0C1200977F82
:09005400011200977F06020097DB
:060003008B088A09890A3E
:10000900BF01047E808013BF02047E90800CBF0371
:10001900047E888005BF04027E98AF06120097E42B
:10002900FDAB08050AE50AAA097002050914F912C7
:0A003900005DFF1200A50DBD10E7E9
:01004300229A
:030000000200BF3C
:0C00BF00787FE4F6D8FD75810A02008706
:10005D00BB010689828A83E0225002E722BBFE02A1
:09006D00E32289828A83E49322D4
:00000001FF
