:1000000002021C8F088D09E4F9EB14F50AC3740190
:100010009BF50BE9D3950A40030200EA300047E55F
:100020000829FAC3E50899FFEAC39F4013AF0212FB
:1000300000EBAF02C3E509950AFD1200F01A80E358
:10004000E50A2508FAC3E508950AFFEAC39F40744C
:10005000AF02E50929FD1200F0AF02C3E50999FDE1
:100060001200F01A80DFE50829FF1200EBE50829ED
:10007000FFC3E509950AFD1200F0C3E50899FF12D8
:1000800000EBC3E50899FFC3E509950AFD1200F0EE
:10009000E50A2508FFE50929FD1200F0E50A250813
:1000A000FFC3E50999FD1200F0C3E508950AFFE5D5
:1000B0000929FD1200F0C3E508950AFFC3E5099977
:1000C000FD1200F0C3E50B64809480500BE925E03D
:1000D0002403250BF50B800EC3E9950A25E02405C2
:1000E000250BF50B150A0902001322E50A2509FD67
:1000F000AC07ECC39400406FECD3947F5069EDC320
:1001000094004063EDD3943F505D750C80750D00F5
:100110007F361201C8EDC39420400874E02DFD74B1
:10012000802CFCEC540FFFE50DAE0CA807088005F1
:10013000CEC313CE13D8F9F50D8E0C1201BA1202EC
:100140000E8F0E12020EAB07E50C4BF50E12020ECF
:10015000EF450DF50F1201BAAF0E120200AF0F12EC
:1001600002007F301201C8227F341201C8E4FEE48D
:10017000FDED4480FF1201C8EE4480FF1201C8E487
:10018000FF1202001202000DBD20E60EBE10E07F3D
:10019000361201C87F300201C8D2A3D2A47F301228
:1001A00001C87F011201C80F1201C87F0C1201C8DB
:1001B0007F011201C87F060201C8ED4480FF1201D1
:1001C000C8ECC4540F4480FF1201EFC2A5C2A6D2EE
:1001D000A78F80C2A722BB010689828A83E02250B2
:1001E00002E722BBFE02E32289828A83E49322C2D1
:1001F000A5D2A6C2A77580FFD2A7E58020E7F0228E
:100200001201EFD2A5C2A6D2A78F80C2A7221201E7
:10021000EFD2A5D2A6D2A7AF80C2A722787FE4F6FC
:10022000D8FD758120020233D2007B1F7D1F7F3FE6
:0E02300002000312019912016812022880FEDA
:00000001FF
