:100000000206CE8F218D228B238A248925120A464F
:100010008E2B8F2C75310175320885223385213462
:10002000E527452660030200CDF529F52AC3E52A18
:10003000952CE529952B40030202D5E5282405855A
:100040002AF0A42534F521853322AB23AA24A9253F
:10005000852A828529831208C424E0FFE434FFFE48
:10006000EF7803C333CE33CED8F9F52E8E2DE4F5D9
:100070002FF530E530C3953250450530E52FC39557
:10008000315028052F749A252EF582740A352DF5E6
:1000900083E493FBAD22AF21120939052EE52E70C2
:1000A00002052D74082521F52180D1E52F75F00872
:1000B000A4FFC3E5219FF521E4F52F052280B405B7
:1000C0002AE52A600302002D052902002DE5276498
:1000D0005A45266003020179F529F52AC3E52A95D8
:1000E0002CE529952B40030202D5853421E52824EF
:1000F00005852AF0A42533F522AB23AA24A925855A
:100100002A828529831208C424E0FFE434FFFEEF2D
:100110007803C333CE33CED8F9F52E8E2DE4F52FE8
:10012000F530E530C3953250450530E52FC39531A4
:100130005028052F749A252EF582740A352DF583E3
:10014000E493FBAD22AF21120964052EE52E700267
:10015000052D74082522F52280D1E52F75F008A41D
:10016000FFC3E5229FF522E4F52F152180B4052A6F
:10017000E52A700205290200DCE52764B445266003
:1001800003020225F529F52AC3E52A952CE52995D0
:100190002B40030202D5E5282405852AF0A4FFC3DD
:1001A000E5349FF521853322AB23AA24A925852A8E
:1001B000828529831208C424E0FFE434FFFEEF782F
:1001C00003C333CE33CED8F9F52E8E2DE4F52FF5BB
:1001D00030E530C3953250420530E52FC39531509C
:1001E00028052F749A252EF582740A352DF583E49F
:1001F00093FBAD22AF2112098F052EE52E7002056B
:100200002D74F82521F52180D1E52F75F008A4255E
:1002100021F521E4F52F152280B7052AE52A700281
:100220000529020188E527640E7004E52664016053
:10023000030202D5F529F52AC3E52A952CE529956F
:100240002B40030202D5853421E5282405852AF0B8
:10025000A4FFC3E5339FF522AB23AA24A925852A51
:10026000828529831208C424E0FFE434FFFEEF787E
:1002700003C333CE33CED8F9F52E8E2DE4F52FF50A
:1002800030E530C3953250420530E52FC3953150EB
:1002900028052F749A252EF582740A352DF583E4EE
:1002A00093FBAD22AF211209BA052EE52E7002058F
:1002B0002D74F82522F52280D1E52F75F008A425AC
:1002C00022F522E4F52F052180B7052AE52A7002E0
:1002D000052902023822E50870167BFF7A1F796231
:1002E0007F021208537BFF7A1F79717F030204B2E9
:1002F000E508640170627BFF7A1F797F7F01120835
:1003000053E50925E025E0FE2414FFEE2428FB75C3
:1003100029287D141204D0E50925E025E0FE2428D3
:10032000FFEE2414FB7529287D141204D0E509255D
:10033000E025E0241EFBFF7529287D141204D0E57A
:100340000925E025E0FE2414FFEE2428FB75291E74
:100350007D1E1204D00204B5E508640270317BFFF3
:100360007A1F798C7F01120853752414C2007B1404
:100370007D147F141207D7E50925E025E0241EFF30
:10038000752414D2007B147D1E1207D70204B5E534
:10039000086403702B7BFF7A1F79987F0112085342
:1003A000C2007B0A7D1E7F1E1205E6E50925E025B9
:1003B000E02428FFD2007B0A7D281205E60204B55E
:1003C000E5086404705B7BFF7A1F79A77F01120840
:1003D000537BFF7A1F79B4E4F526F5277528017D54
:1003E0000FFF1200037BFF7A1F79CAE4F526F52779
:1003F0007528017D18FF1200037BFF7A1F79D0E476
:10040000F526F5277528017D21FF1200037BFF7A71
:100410001F79E6E4F526F5277528017D2AFF0204F9
:10042000A0E508640570257BFF7A1F79A77F01127C
:100430000853E50925E02414FF7BFF7A1F79EC754A
:10044000260075275A7528017D148054E508640636
:1004500070257BFF7A1F79A77F01120853E50925D4
:10046000E02428FF7BFF7A1F79EC7526007527B4FE
:100470007528017D1E8029E508640770287BFF7AB6
:100480001F79A77F01120853E50925E02414FF7B9B
:10049000FF7A1F79EC75260175270E7528017D28D6
:1004A0001200038010E508B4080B7BFF7A1F79F176
:1004B0007F02120853E509B40F0DE4F509E508645D
:1004C0000860060508800205097F647E000209E5D0
:1004D0008F268B28C3E5289526F52AC3E5299DF5A7
:1004E0002BD3E52A648094805008E52B64809480A7
:1004F0004012C3E52A648094804026D3E52B6480B3
:100500009480501D85282C852628852C2685292C0D
:100510008D29AD2CC3E5289526F52AC3E5299DF53F
:100520002BC3E52A64809480501485282C852628C6
:10053000852C26C3E5289526F52AD2028002C20220
:10054000C3E52B6480F8E52A6480984004D20180DA
:1005500002C201300104AF2A8002AF2BEF3395E0D5
:10056000FEC3E49FF582E49EF583AA26A905EAD39B
:1005700095285071E99529506C300209E526252807
:10058000C39AFF8002AF02AD0112075F300104AFD2
:100590002B8002AF2AEF3395E0FEEF25E0FFEE332C
:1005A000FEEF2582F582EE3583F583D3E582940054
:1005B000E5836480948050093001030A80B009808B
:1005C000AD0A09300104AF2A8002AF2BEF3395E06A
:1005D000FEEF25E0FFEE33FEC3E5829FF582E58363
:1005E0009EF5838089228F218D22E4F9EB14F52377
:1005F000C374019BF524E9D3952340030206CD3053
:100600000047E52129FAC3E52199FFEAC39F40137A
:10061000AF0212075AAF02C3E5229523FD12075F0E
:100620001A80E3E5232521FAC3E5219523FFEAC3D8
:100630009F4074AF02E52229FD12075FAF02C3E5B8
:100640002299FD12075F1A80DFE52129FF12075A60
:10065000E52129FFC3E5229523FD12075FC3E521AC
:1006600099FF12075AC3E52199FFC3E5229523FD9F
:1006700012075FE5232521FFE52229FD12075FE52B
:10068000232521FFC3E52299FD12075FC3E52195CC
:1006900023FFE52229FD12075FC3E5219523FFC350
:1006A000E52299FD12075FC3E52464809480500B16
:1006B000E925E024032524F524800EC3E9952325AC
:1006C000E024052524F5241523090205F622787F68
:1006D000E4F6D8FD75813A020715020A88E493A36F
:1006E000F8E493A34003F68001F208DFF48029E4E4
:1006F00093A3F85407240CC8C333C4540F4420C830
:10070000834004F456800146F6DFE4800B010204C6
:100710000810204080900A93E47E019360BCA3FF00
:10072000543F30E509541FFEE493A360010ECF54FB
:10073000C025E060A840B8E493A3FAE493A3F8E4EA
:1007400093A3C8C582C8CAC583CAF0A3C8C582C856
:10075000CAC583CADFE9DEE780BEE5232522FDACFA
:1007600007ECC39400406FECD3947F5069EDC394C1
:10077000004063EDD3943F505D7537807538007F3E
:1007800036120A38EDC39420400874E02DFD7480C1
:100790002CFCEC540FFFE538AE37A807088005CED7
:1007A000C313CE13D8F9F5388E37120A2A120A7AF3
:1007B0008F39120A7AAB07E5374BF539120A7AEF0F
:1007C0004538F53A120A2AAF39120A6CAF3A120AC2
:1007D0006C7F30120A38228F218D228B2330002C1F
:1007E000852225E5222524FFE433FEC3E5259FEE7F
:1007F0006480F8748098505AE521252314FB8525E0
:1008000029AD25AF211204D0052580D7E522252466
:1008100014F529AB21AD22AF211204D0E521252307
:1008200014FB852229AD22AF211204D0E521252316
:1008300014FBFFE522252414FD8522291204D0E5AE
:1008400021252314FFE522252414FDF529AB2112CF
:1008500004D0228F218B228A238924120A46AE07D4
:10086000E521B40105752580801CE521B4020575DC
:1008700025908012E521B403057525888008E521BF
:10088000B40403752598AF25120A38E4FDEDC39E24
:100890005018AB220524E524AA237002052314F97D
:1008A0001208ABFF120A6C0D80E322BB010689829D
:1008B0008A83E0225002E722BBFE02E32289828A79
:1008C00083E49322BB010CE58229F582E5833AF5A6
:1008D00083E0225006E92582F8E622BBFE06E925E0
:1008E00082F8E222E58229F582E5833AF583E493F2
:1008F00022EF8DF0A4A8F0CF8CF0A428CE8DF0A428
:100900002EFE227F01120A387F34120A38E4FEE4F8
:10091000FDED4480FF120A38EE4480FF120A38E4ED
:10092000FF120A6C120A6C0DBD20E60EBE10E07FAD
:1009300036120A387F30020A388D358B36AA07798D
:1009400008E9D39400401C19E536A801088002C3C9
:1009500013D8FC139200300007AF02AD3512075FC9
:100960000A80DE228F358B36AA057908E9D39400F8
:10097000401C19E536A801088002C313D8FC139265
:1009800000300007AD02AF3512075F0A80DE228D0E
:10099000358B36AA077908E9D39400401C19E5364F
:1009A000A801088002C313D8FC139200300007AFDF
:1009B00002AD3512075F1A80DE228F358B36AA050D
:1009C0007908E9D39400401C19E536A80108800293
:1009D000C313D8FC139200300007AD02AF351207E5
:1009E0005F1A80DE22E4FDFCC3ED9FEC9E5019E40B
:1009F000FB900000A3E582647C458370F70BBB028B
:100A0000F00DBD00010C80E022D2A3D2A47F3012F1
:100A10000A387F01120A380F120A387F0C120A387E
:100A20007F01120A387F06020A38ED4480FF120A5D
:100A300038ECC4540F4480FF120A5BC2A5C2A68FD3
:100A400080D2A7C2A722E4FFFE1208AB600C0FEF12
:100A500070010E09E970F20A80EF22C2A5D2A6C287
:100A6000A77580FFD2A7E58020E7F022120A5BD2AB
:100A7000A5C2A68F80D2A7C2A722120A5BD2A5D296
:100A8000A6D2A7AF80C2A722120A09120903120236
:100A9000D680F801080001090000000000000000F5
:100AA0000000202020202000200050505000000096
:100AB00000005050F850F85050002078C07028F0D6
:100AC0002000C0C810204098180040A0A040A89066
:100AD000680030204000000000001020404040200E
:100AE0001000402010101020400020A8702070A896
:100AF0002000202020F8202020000000000060407E
:100B00008000000000F8000000000000000000600D
:100B100060000008102040800000708898A8C888F5
:100B200070002060202020207000708808304080F5
:100B3000F800F80810300888700010305090F81055
:100B40001000F880F00808887000384080F088882D
:100B50007000F80810204040400070888870888835
:100B60007000708888780810E000006060006060A5
:100B70000000006060006060800010204080402025
:100B800010000000F800F8000000402010081020BD
:100B9000400070881020200020007088B8A8B8801D
:100BA000780020508888F8888800F08888F0888845
:100BB000F0007088808080887000F088888888883D
:100BC000F000F88080F08080F800F88080F080806D
:100BD000800070888080B8887800888888F8888845
:100BE00088007020202020207000381010101090F5
:100BF00060008890A0C0A090880080808080808065
:100C0000F80088D8A8A8888888008888C8A8988804
:100C100088007088888888887000F08888F08080D4
:100C2000800070888888A8906800F08888F0A0907C
:100C300088007088807008887000F82020202020AC
:100C400020008888888888887000888888888850EC
:100C50002000888888A8A8D88800888850205088D4
:100C600088008888502020202000F808102040802C
:100C7000F800F0C0C0C0C0C0F000008040201008E4
:100C8000000078181818181878002070A820202064
:100C90002000002040F84020000020100800000044
:100CA00000000000E010709068008080B0C888C824
:100CB000B0000000708880807000080868988898EC
:100CC000680000007088F0807000304840F04040BC
:100CD000400000007088887808F08080B0C888885C
:100CE000880020000020202020001000003010107C
:100CF0001060808090A0C0A098006020202020205C
:100D00007000000050A8A8A8A8000000B0484848FB
:100D1000480000007088888870000000F08888F023
:100D2000808000007888887808080000B04840403B
:100D30004000000078807008F0004040F8404048D3
:100D400030000000909090906800000088888850E3
:100D500020000000A8A8A8A850000000885020503B
:100D6000880000008888986808F00000F81020408B
:100D7000F80020404080404020002020200020201B
:100D800020002010100810102000000040A81000C3
:100D90000000000000000000000000000000000053
:100DA0000000000000000000000000000000000043
:100DB0000000000000000000000000000000000033
:100DC00000000000020007000700070007000700FE
:100DD00007000700070002000200020002000200F4
:100DE00002000200000000000200070007000200ED
:100DF00000000000000039C039C039C010801080E8
:100E00001080000000000000000000000000000052
:100E100000000000000000000000000000000000D2
:100E200000000000000000000000018031803180DF
:100E300031E03F80F18031803180318031E03F808E
:100E4000F18031803180318031803000000000003D
:100E5000000000000000060006003FC06660C630CB
:100E6000C630C600C60066003E000F8007C00660A0
:100E70000630C630C630C63066603FC00600060089
:100E800000000000000030004820CC60CC40CCC006
:100E9000CC80CD804B003200060004000C0009809D
:100EA0001A403660266066604660C66082400180F7
:100EB0000000000000001C0022004200420042002E
:100EC000640028003000380048004C00C400C670A0
:100ED000C320C320C1C0C0C0C1C067603C30000097
:100EE00000000000000007000700070007000200E4
:100EF00002000200000000000000000000000000EE
:100F000000000000000000000000000000000000E1
:100F10000000002000400080018001000300030069
:100F20000600060006000600060006000600060091
:100F3000060006000300030001000180008000405D
:100F40000020400020001000180008000C000C00D9
:100F50000600060006000600060006000600060061
:100F6000060006000C000C0008001800100020000D
:100F70004000000000000000000004000E000E0011
:100F8000C460E4E064C0110000000000110064C00F
:100F9000E4E0C4600E000E00040000000000000049
:100FA0000000000000000000000000000000000041
:100FB00006000600060006007FE07FE0060006004F
:100FC0000600060000000000000000000000000015
:100FD0000000000000000000000000000000000011
:100FE0000000000000000000000000000000000001
:100FF000000000000C001E001E000E0006000C0089
:1010000018000000000000000000000000000000C8
:1010100000000000000000007FE07FE00000000012
:1010200000000000000000000000000000000000C0
:1010300000000000000000000000000000000000B0
:1010400000000000000000000000000000000000A0
:101050000000000000000C001E001E000C0000003C
:101060000000000000200060004000C000800180FF
:10107000010003000200060004000C000800180034
:1010800010003000200060004000C0008000000020
:101090000000000000000E001B003180318060C0A5
:1010A00060C0C060C060C060C060C060C060C06040
:1010B000C06060C060C0318031801B000E00000045
:1010C00000000000000006001E007E000600060072
:1010D00006000600060006000600060006000600E0
:1010E0000600060006000600060006003FC00000DD
:1010F0000000000000001F00318060C0E060E06080
:101100006060006000C000C00180030006000C00A9
:101110001800300070006020E020FFE0FFE00000D9
:101120000000000000000F0039C070E07060306007
:10113000006000C0018003000E00038000C000605A
:10114000006000606060E060E0E071C03F000000AF
:1011500000000000000001800380038007800580FC
:101160000D8009801980118031802180618041804B
:10117000C180FFF0018001800180018007E0000054
:101180000000000000007FC07FC0600060006000C1
:10119000600060006700698070C040C0006000604F
:1011A000006000606060E0C0E0C071803F0000004F
:1011B0000000000000001F00338061C061C0C180DA
:1011C000C000C000CF00D180E0C0C0C0C060C0601F
:1011D000C060C060C06060C060C031801F0000009F
:1011E0000000000000007FE0FFE0C060804080C0A1
:1011F00000800180010003000300060006000600D5
:101200000C000C000C000C000C000C000C0000008A
:101210000000000000001F00318060C060C060C09E
:1012200060C031801B000E001F00318060C0C060B4
:10123000C060C060C060C06060C031801F0000003E
:101240000000000000001F00318060C060C0C0606E
:10125000C060C060C060C060606060E031601E60FF
:1012600000600060306070C070C039801F000000F6
:101270000000000000000000000000000000060068
:101280000F000F0006000000000000000000060034
:101290000F000F000600000000000000000000002A
:1012A0000000000000000000000000000000060038
:1012B0000F000F0006000000000000000000060004
:1012C0000F000F000700030006000C0000000000E4
:1012D0000000000000000000006000C0018003006A
:1012E00006000C00180030006000C00060003000F4
:1012F00018000C0006000300018000C00060000020
:1013000000000000000000000000000000000000DD
:1013100000007FE07FE000000000000000007FE0B0
:101320007FE000000000000000000000000000005E
:101330000000000000000000C00060003000180045
:101340000C0006000300018000C0006000C00180A6
:10135000030006000C00180030006000C000000010
:101360000000000000000F8018C0306070607060E6
:10137000206000C000C001800100030002000200E4
:101380000200020000000000020007000700020047
:101390000000000000001F002080404080208F20BF
:1013A00099A0B1A0B1A0B1A0B1A0B1A0B1A0B1A0CD
:1013B000BFA09CC080008000402020401F80000013
:1013C000000000000000060006000B000B000900F2
:1013D0000900198019801080108030C030C03FC0D3
:1013E00030C020406060606060606060F0F00000CD
:1013F000000000000000FE006300618060C060C06B
:1014000060C060C0618063007E00638060C060C0B7
:1014100060606060606060C060C06180FF0000006C
:101420000000000000001F2031E060E06060C0208C
:10143000C000C000C000C000C000C000C000C000AC
:10144000C000C000C060606060C031801F0000004C
:10145000000000000000FE006300618060C060C00A
:10146000606060606060606060606060606060607C
:101470006060606060C060C061806300FE0000006A
:10148000000000000000FFE060E06060602060207D
:1014900060006100610063007F0063006100610023
:1014A0006000600060206020606060E0FFE000009D
:1014B000000000000000FFE060E06060602060204D
:1014C00060006100610063007F00630061006100F3
:1014D000600060006000600060006000F0000000DC
:1014E0000000000000001E4033C060C06040C040EB
:1014F000C000C000C000C000C1E0C0C0C0C0C0C0CB
:10150000C0C0C0C0C0C061C063C036C01CC0000045
:10151000000000000000F1E060C060C060C060C07A
:1015200060C060C060C060C07FC060C060C060C09C
:1015300060C060C060C060C060C060C0F1E000001A
:101540000000000000001FE0030003000300030090
:101550000300030003000300030003000300030073
:101560000300030003000300030003001FE000006A
:1015700000000000000007E0018001800180018080
:101580000180018001800180018001800180018053
:1015900001806180F180E180C18067003E00000031
:1015A000000000000000F3E06180618063006300E0
:1015B000660066006C006C007C007C0076007600A3
:1015C000630063006180618060C060C0F1F0000072
:1015D000000000000000F00060006000600060009B
:1015E00060006000600060006000600060006000FB
:1015F0006000600060206020606060E0FFE000004C
:10160000000000000000E07060606060606070E0FA
:1016100070E070E070E079E0696069606F6066605A
:10162000666066606060606060606060F0F000004E
:10163000000000000000E1E060C060C070C070C049
:1016400070C078C068C06CC064C066C062C063C04F
:1016500061C061C061C060C060C06040F040000017
:101660000000000000001F00318060C0C060C0604A
:10167000C060C060C060C060C060C060C060C0606A
:10168000C060C060C060C06060C031801F000000EA
:10169000000000000000FE00638060C060C0606069
:1016A0006060606060C060C063807E006000600059
:1016B000600060006000600060006000F0000000FA
:1016C0000000000000001F00318060C0C060C060EA
:1016D000C060C060C060C060C060C060C060C0600A
:1016E000C060C060CC60C660636031C01EC0007066
:1016F000000000000000FE006380618060C060C0E8
:1017000060C060C0618063807E006C006C00660019
:101710006600630063006180618060C0F1E00000EA
:101720000000000000001E4073C0C1C0C0C0C04027
:10173000E000700038001C000E000700038001C0AC
:1017400000E08060C060E060F0C0D9808F000000E1
:10175000000000000000FFF0E670C6308610861022
:101760000600060006000600060006000600060049
:101770000600060006000600060006001F800000A6
:10178000000000000000F1E060C060C060C060C008
:1017900060C060C060C060C060C060C060C060C049
:1017A00060C060C060C060C060C031801F000000C9
:1017B000000000000000F1E060C060C060C060C0D8
:1017C00060C03180318031803180318031801B00B8
:1017D0001B001B001B000E000E000E00040000008A
:1017E000000000000000F0F0606060606060606019
:1017F00060606060606026402640264026402640AB
:1018000036C036C036C01980198019801980000092
:10181000000000000000F0F06060606030C030C088
:10182000198019800F000F00060006000F000F003E
:101830001980198030C030C060606060F0F0000036
:10184000000000000000F0F06060606030C030C058
:1018500030C01980198019800F000F0006000600A3
:101860000600060006000600060006001F800000B5
:10187000000000000000FFC0E0C0C1C08180830004
:101880000300060006000C000C00180018003000D1
:10189000300060006020C020C060C0E0FFE00000B9
:1018A000000007E004000400040004000400040039
:1018B0000400040004000400040004000400040008
:1018C00004000400040004000400040004000400F8
:1018D00007E000008000C0004000600020003000F1
:1018E0001000180008000C000400060002000300AD
:1018F00001000180008000C0004000600020000066
:1019000000007E000200020002000200020002004D
:1019100002000200020002000200020002000200B7
:1019200002000200020002000200020002000200A7
:101930007E00000006000F00198030C0606040206B
:101940000000000000000000000000000000000097
:101950000000000000000000000000000000000087
:101960000000000000000000000000000000000077
:101970000000000000000000000000000000000067
:101980000000000000000000000000000000000057
:10199000FFF018003C000F0001C000000000000034
:1019A0000000000000000000000000000000000037
:1019B0000000000000000000000000000000000027
:1019C0000000000000000000000000000000000017
:1019D000000000003F006180F0C060C000C00FC088
:1019E00038C060C0C0C0C0C0C0C0E3C03E6000001E
:1019F000000000000000E000600060006000600087
:101A0000600060006F00798070C060C060606060DE
:101A100060606060606060C070C07980CF0000006E
:101A200000000000000000000000000000000000B6
:101A3000000000001F0031C060E061E0C0C0C000D5
:101A4000C000C000C0006000606030C01F800000A7
:101A500000000000000000E0006000600060006026
:101A6000006000601F6031E060E06060C060C060E6
:101A7000C060C060C060606060E031E01F200000B6
:101A80000000000000000000000000000000000056
:101A9000000000001F00318060C060C0C060C060F6
:101AA000FFE0C000C0006000606030C01F80000028
:101AB00000000000000007C00CE018E0184018000B
:101AC00018001800FF00180018001800180018006F
:101AD0001800180018001800180018007E000000F8
:101AE00000000000000000000000000000000000F6
:101AF000000000003E6063E0C180C180C1806300DF
:101B00003E0060007800CF80C1C0C060C06060C08F
:101B10003F8000000000E0006000600060006000A6
:101B20006000600067006D8078C070C060C060C0F9
:101B300060C060C060C060C060C060C0F1E0000014
:101B400000000000000006000F000F00060000006B
:101B5000000000001E000600060006000600060049
:101B60000600060006000600060006001F800000B2
:101B70000000000000000300078007800300000051
:101B80000000000007800180018001800180018049
:101B900001800180018001806180F180E18063002B
:101BA0003E0000000000E000600060006000600097
:101BB0006000600063E06180630066006C007E008E
:101BC0007600630063006180618060C0F1E0000026
:101BD0000000000000001E000600060006000600CF
:101BE00006000600060006000600060006000600C5
:101BF0000600060006000600060006001F80000022
:101C000000000000000000000000000000000000D4
:101C100000000000EDC07FE06660666066606660A0
:101C2000666066606660666066606660F7700000A9
:101C300000000000000000000000000000000000A4
:101C400000000000E7006D8078C070C060C060C018
:101C500060C060C060C060C060C060C0F1E00000F3
:101C60000000000000000000000000000000000074
:101C7000000000001F00318060C060C0C060C06014
:101C8000C060C060C06060C060C031801F000000E4
:101C90000000000000000000000000000000000044
:101CA00000000000EF00798070C060C0606060607C
:101CB000606060C070C079806F006000600060008C
:101CC000F000000000000000000000000000000024
:101CD000000000001E4033C061C060C0C0C0C0C072
:101CE000C0C060C061C033C01EC000C000C000C022
:101CF00001E0000000000000000000000000000003
:101D000000000000E7806CC078E070C060006000F8
:101D1000600060006000600060006000F000000093
:101D200000000000000000000000000000000000B3
:101D3000000000003F0061C0C0C0C040E00078006B
:101D40001F0003C000E08060C060E0C03F80000072
:101D5000000000000000000000000800180018004B
:101D600018001800FFC0180018001800180018000C
:101D7000180018001800186018600CC007800000D8
:101D80000000000000000000000000000000000053
:101D900000000000E1C060C060C060C060C060C002
:101DA00060C060C060C061C063C036C01CE000009D
:101DB0000000000000000000000000000000000023
:101DC00000000000F1E060C060C0318031803180EF
:101DD0001B001B001B000E000E000E000400000084
:101DE00000000000000000000000000000000000F3
:101DF00000000000F0F0606060606660666036C001
:101E000036C036C03FC01980198019801980000083
:101E100000000000000000000000000000000000C2
:101E200000000000F1E060C060C031801B000E00C7
:101E30000E000E001B00318060C060C0F1E00000A9
:101E40000000000000000000000000000000000092
:101E500000000000F1E060C030C0318019801980BE
:101E60000F000F000700060006000600CC00CC00A3
:101E700078000000000000000000000000000000EA
:101E8000000000007FE0406040C0018003000600C9
:101E90000C00180030006020C020C060FFE000008F
:101EA000000001E003000600060006000600060030
:101EB0000600060006000C00180018000C000600C2
:101EC00006000600060006000600060006000300E5
:101ED00001E00600060006000600060006000600F7
:101EE00006000600060006000600060006000600C2
:101EF00006000600060006000600060006000600B2
:101F0000060078000C000600060006000600060029
:101F100006000600060003000180018003000600A1
:101F200006000600060006000600060006000C007B
:101F30007800000000000000000000000000000029
:101F400000000000000038006C30C36001C00000D9
:101F50000000000000000000000000000000000081
:101F600000002051433132383634422054657374B6
:101F700000202062792070696B6970697479004C67
:101F8000696E652054657374696E6700426F7820CE
:101F900054657374696E6700436972636C6520549D
:101FA000657374696E6700466F6E74205465737450
:101FB000696E67004142434445464748494A4B4C95
:101FC0004D4E4F50515253545500565758595A0080
:101FD0006162636465666768696A6B6C6D6E6F7079
:101FE000717273747500767778797A004142434450
:0D1FF00000202020202046696E69736800E3
:00000001FF
