:1001CE00E4F50BFB7D3F7F7F120003E4F50BFB7D17
:1001DE003FFF120003E4F50B7B7FFDFF120003755A
:1001EE000B3F7B7F7D3FE4FF120003E4F50B7B7F2B
:1001FE007D3F7F7F120003750B3FE4FBFD7F7F0287
:02020E000003EB
:0B02E5001202411202101201CE80FE36
:1002AC00C2A5D2A6C2A77580FFD2A7E58020E7F031
:0102BC00221F
:0E026200ED4480FF120270ECC4540F4480FF84
:0E0270001202ACC2A5C2A6D2A78F80C2A722DE
:0E02BD001202ACD2A5C2A6D2A78F80C2A72281
:0D02CB001202ACD2A5D2A6D2A7AF80C2A766
:0102D8002203
:10024100D2A3D2A47F301202707F011202700F126A
:1002510002707F0C1202707F011202707F0602028F
:01026100702C
:080176008F118B128A1389140A
:10017E00120297AE07E511B40105751580801CE5D6
:10018E0011B402057515908012E511B403057515AD
:10019E00888008E511B40403751598AF1512027026
:1001AE00E4FDEDC39E5018AB120514E514AA1370AE
:0F01BE0002051314F912027EFF1202BD0D80E339
:0101CD00220F
:100210007F34120270E4FEE4FDED4480FF120270B0
:10022000EE4480FF120270E4FF1202BD1202BD0D07
:10023000BD20E60EBE10E07F361202707F30020253
:01024000704D
:02011900AC0731
:10011B00750F807510007F36120270EDC39420406E
:10012B000874E02DFD74802CFCEC540FFFE510AE31
:10013B000FA807088005CEC313CE13D8F9F5108E80
:10014B000F1202621202CBAE071202CBAB07E50F06
:10015B004BFE1202CBEF4510FB120262AF061202EE
:0B016B00BDAF031202BD7F3002027026
:040003008F088B0ACD
:10000700C3E50A9508F50CC3E50B9DF50DD3E50C83
:10001700648094805008E50D648094804012C3E5A5
:100027000C648094804026D3E50D64809480501D35
:10003700850A0E85080A850E08850B0E8D0BAD0EF9
:10004700C3E50A9508F50CC3E50B9DF50DC3E50C53
:10005700648094805014850A0E85080A850E08C3AB
:10006700E50A9508F50CD2018002C201C3E50D64CB
:1000770080F8E50C6480984004D2008002C200300A
:100087000004AF0C8002AF0DEF3395E0FEC3E49F91
:10009700F582E49EF583AA08A905EAD3950A50716B
:1000A700E9950B506C300109E508250AC39AFF80D2
:1000B70002AF02AD01120119300004AF0D8002AF8B
:1000C7000CEF3395E0FEEF25E0FFEE33FEEF2582E0
:1000D700F582EE3583F583D3E5829400E58364806A
:1000E700948050093000030A80B00980AD0A0930B6
:1000F7000004AF0C8002AF0DEF3395E0FEEF25E073
:10010700FFEE33FEC3E5829FF582E5839EF583808C
:01011700895E
:0101180022C4
:030000000202D920
:0C02D900787FE4F6D8FD7581200202E574
:10027E00BB010689828A83E0225002E722BBFE027E
:09028E00E32289828A83E49322B1
:10029700E4FFFE12027E600C0FEF70010E09E97099
:0502A700F20A80EF22C5
:00000001FF
