:03033700020313AB
:0B032C0012027B12024A12033780FE0F
:1002E600C2A5D2A6C2A77580FFD2A7E58020E7F0F7
:0102F60022E5
:0E029C00ED4480FF1202AAECC4540F4480FF10
:0E02AA001202E6C2A5C2A6D2A78F80C2A7226A
:0E02F7001202E6D2A5C2A6D2A78F80C2A7220D
:0D0305001202E6D2A5D2A6D2A7AF80C2A7F1
:0103120022C8
:10027B00D2A3D2A47F301202AA7F011202AA0F12BC
:10028B0002AA7F0C1202AA7F011202AA7F060202A7
:01029B00AAB8
:0801F2008F168B178A1889197A
:1001FA001202D1AE07E516B40105751A80801CE516
:10020A0016B40205751A908012E516B40305751A1C
:10021A00888008E516B40403751A98AF1A1202AA60
:10022A00E4FDEDC39E5018AB170519E519AA18701D
:0F023A0002051814F91202B8FF1202F70D80E343
:010249002292
:10024A007F341202AAE4FEE4FDED4480FF1202AA02
:10025A00EE4480FF1202AAE4FF1202F71202F70D1F
:10026A00BD20E60EBE10E07F361202AA7F300202DF
:01027A00AAD9
:02019500AC07B5
:100197007514807515007F361202AAEDC3942040AE
:1001A7000874E02DFD74802CFCEC540FFFE515AEB0
:1001B70014A807088005CEC313CE13D8F9F5158EFA
:1001C7001412029C120305AE07120305AB07E514D0
:1001D7004BFE120305EF4515FB12029CAF061202F8
:0B01E700F7AF031202F77F300202AAFC
:040003008F0D8B0FC3
:10000700C3E50F950DF511C3E5109DF512D3E51165
:10001700648094805008E512648094804012C3E5A0
:1000270011648094804026D3E51264809480501D2B
:10003700850F13850D0F85130D8510138D10AD13C7
:10004700C3E50F950DF511C3E5109DF512C3E51135
:10005700648094805014850F13850D0F85130DC38D
:10006700E50F950DF511D2028002C202C3E51264B5
:1000770080F8E5116480984004D2018002C2013003
:100087000104AF118002AF12EF3395E0FEC3E49F86
:10009700F582E49EF583AA0DA905EAD3950F507161
:1000A700E99510506C300209E50D250FC39AFF80C2
:1000B70002AF02AD01120195300104AF128002AF09
:1000C70011EF3395E0FEEF25E0FFEE33FEEF2582DB
:1000D700F582EE3583F583D3E5829400E58364806A
:1000E700948050093001030A80B00980AD0A0930B5
:1000F7000104AF118002AF12EF3395E0FEEF25E068
:10010700FFEE33FEC3E5829FF582E5839EF583808C
:01011700895E
:0101180022C4
:090119008F088D098B0A30002CBF
:1001220085090CE509250BFFE433FEC3E50C9FEEC0
:100132006480F8748098505AE508250A14FB850CEF
:0C01420010AD0CAF08120003050C80D7B4
:10014E00E509250B14F510AB08AD09AF0812000335
:10015E00E508250A14FB850910AD09AF0812000346
:10016E00E508250A14FBFFE509250B14FD8509108A
:10017E00120003E508250A14FFE509250B14FDF509
:07018E0010AB081200032270
:0D031300750B40C2007B80E4FDFF02011964
:03000000020320D8
:0C032000787FE4F6D8FD75812002032CE4
:1002B800BB010689828A83E0225002E722BBFE0244
:0902C800E32289828A83E4932277
:1002D100E4FFFE1202B8600C0FEF70010E09E97025
:0502E100F20A80EF228B
:00000001FF
