:1001CF00750B3F7B7FE4FDFF1200037D20E4FF02F0
:0201DF00007EA0
:0B021A001201641201331201CF80FEBC
:1001E100C2A5D2A6C2A77580FFD2A7E58020E7F0FD
:0101F10022EB
:0E018500ED4480FF120193ECC4540F4480FF40
:0E0193001201E1C2A5C2A6D2A78F80C2A72288
:0E01F2001201E1D2A5C2A6D2A78F80C2A72219
:0D0200001201E1D2A5D2A6D2A7AF80C2A7FD
:01020D0022CE
:10016400D2A3D2A47F301201937F011201930F1204
:1001740001937F0C1201937F011201937F06020108
:0101840093E7
:0800DB008F108B118A128913AA
:1000E3001201BAAE07E510B40105751480801CE552
:1000F30010B402057514908012E510B4030575144D
:10010300888008E510B40403751498AF14120193A2
:10011300E4FDEDC39E5018AB110513E513AA12704D
:0F01230002051214F91201A1FF1201F20D80E37F
:0101320022AA
:100133007F34120193E4FEE4FDED4480FF1201934A
:10014300EE4480FF120193E4FF1201F21201F20D5B
:10015300BD20E60EBE10E07F361201937F30020110
:010163009308
:02007E00AC07CD
:10008000750E80750F007F36120193EDC3942040EA
:100090000874E02DFD74802CFCEC540FFFE50FAECE
:1000A0000EA807088005CEC313CE13D8F9F50F8E1E
:1000B0000E120185120200AE07120200AB07E50E18
:1000C0004BFE120200EF450FFB120185AF06120135
:0B00D000F2AF031201F27F3002019337
:020003008B0A66
:10000500C3E50A9FF50CC3E50B9DF50DE50CFB3328
:1000150095E0FAC3E49BFBE49A8B82F583AA07A9D2
:1000250005EAD3950A5051E9950B504CAF02AD0145
:1000350012007EAF0DEF3395E0FEEF25E0FFEE33C6
:10004500FEEF2582F582EE3583F583D3E5829400B4
:10005500E5836480948050030A80C60A09AF0CEFDB
:100065003395E0FEEF25E0FFEE33FEC3E5829FF515
:0800750082E5839EF58380A95A
:01007D002260
:0300000002020EEB
:0C020E00787FE4F6D8FD75811402021A16
:1001A100BB010689828A83E0225002E722BBFE025C
:0901B100E32289828A83E493228F
:1001BA00E4FFFE1201A1600C0FEF70010E09E97055
:0501CA00F20A80EF22A3
:00000001FF
