:1000000002026E8F088D098B0A8A0B890C1202205E
:100010008E0F8F107515017516088509178508183C
:10002000E4F50DF50EC3E50E9510E50D950F4003B3
:100030000200C3E50E75F006A42518F5088517091A
:10004000AB0AAA0BA90C850E82850D8312015A24D6
:10005000E0FFE434FFFEEF7803C333CE33CED8F9AC
:10006000F5128E11E4F513F514E514C395165045F9
:100070000514E513C395155028051374852512F54D
:100080008274023511F583E493FBAD09AF081201C8
:10009000B80512E5127002051174082508F50880EC
:1000A000D1E51375F008A4FFC3E5089FF508E4F552
:1000B00013050980B4050EE50E6003020025050D49
:1000C00002002522E5002500FDAC07ECC3940040AA
:1000D0006FECD3947F5069EDC394004063EDD394EB
:1000E0003F505D751B80751C007F36120212EDC3F8
:1000F0009420400874E02DFD74802CFCEC540FFF1C
:10010000E51CAE1BA807088005CEC313CE13D8F993
:10011000F51C8E1B1202041202548F1D120254ABE6
:1001200007E51B4BF51D120254EF451CF51E12028C
:1001300004AF1D120246AF1E1202467F3012021299
:1001400022BB010689828A83E0225002E722BBFE9D
:1001500002E32289828A83E49322BB010CE582298F
:10016000F582E5833AF583E0225006E92582F8E638
:1001700022BBFE06E92582F8E222E58229F582E526
:10018000833AF583E493227F34120212E4FEE4FD05
:10019000ED4480FF120212EE4480FF120212E4FFCF
:1001A0001202461202460DBD20E60EBE10E07F365A
:1001B0001202127F300202128D198B1AAA077908D7
:1001C000E9D39400401C19E51AA801088002C31362
:1001D000D8FC139200300007AF02AD191200C90A13
:1001E00080DE22D2A3D2A47F301202127F0112023B
:1001F000120F1202127F0C1202127F011202127FE2
:1002000006020212ED4480FF120212ECC4540F44A5
:1002100080FF120235C2A5C2A6D2A78F80C2A72234
:10022000E4FFFE120141600C0FEF70010E09E9704E
:10023000F20A80EF22C2A5D2A6C2A77580FFD2A77C
:10024000E58020E7F022120235D2A5C2A6D2A78F00
:1002500080C2A722120235D2A5D2A6D2A7AF80C2F1
:10026000A7227BFF7A05797DE4FDFF020003787FFA
:10027000E4F6D8FD75812002027A1201E3120187AB
:1002800012026280FE00000000000000002020201A
:10029000202000200050505000000000005050F876
:1002A00050F85050002078C07028F02000C0C810CE
:1002B000204098180040A0A040A89068003020403E
:1002C000000000000010204040402010004020109E
:1002D000101020400020A8702070A82000202020AE
:1002E000F820202000000000006040800000000096
:1002F000F80000000000000000006060000008102E
:100300002040800000708898A8C888700020602075
:100310002020207000708808304080F800F8081015
:10032000300888700010305090F8101000F880F0FD
:100330000808887000384080F088887000F808103D
:1003400020404040007088887088887000708888DD
:10035000780810E0000060600060600000006060ED
:10036000006060800010204080402010000000F8F5
:1003700000F8000000402010081020400070881095
:1003800020200020007088B8A8B88078002050880D
:1003900088F8888800F08888F08888F00070888065
:1003A0008080887000F08888888888F000F88080D5
:1003B000F08080F800F88080F08080800070888075
:1003C00080B8887800888888F8888888007020201D
:1003D000202020700038101010109060008890A02D
:1003E000C0A0908800808080808080F80088D8A895
:1003F000A8888888008888C8A89888880070888815
:100400008888887000F08888F080808000708888F4
:1004100088A8906800F08888F0A090880070888094
:100420007008887000F8202020202020008888880C
:100430008888887000888888888850200088888804
:10044000A8A8D888008888502050888800888850BC
:100450002020202000F80810204080F800F0C0C0C4
:10046000C0C0C0F0000080402010080000781818BC
:1004700018181878002070A82020202000002040A4
:10048000F84020000020100800000000000000E0FC
:1004900010709068008080B0C888C8B000000070FC
:1004A000888080700008086898889868000000704C
:1004B00088F0807000304840F040404000000070FC
:1004C00088887808F08080B0C8888888002000007C
:1004D000202020200010000030101010608080903C
:1004E000A0C0A098006020202020207000000050B4
:1004F000A8A8A8A8000000B048484848000000701C
:1005000088888870000000F08888F080800000787B
:1005100088887808080000B0484040400000007813
:10052000807008F0004040F84040483000000090E3
:10053000909090680000008888885020000000A8F3
:10054000A8A8A8500000008850205088000000880B
:1005500088986808F00000F8102040F8002040401B
:10056000804040200020202000202020002010106B
:100570000810102000000040A81000000041424375
:100580004420454647482061626364206566676889
:0F0590002021402324255E262A28295F2B2D00B9
:00000001FF
