:10000000020206E5002500FDAC07ECC39400406F3A
:10001000ECD3947F5069EDC394004063EDD3943FDB
:10002000505D7515807516007F361201B7EDC394CB
:1000300020400874E02DFD74802CFCEC540FFFE58B
:1000400016AE15A807088005CEC313CE13D8F9F550
:10005000168E151201A91201F88F171201F8AB07BD
:10006000E5154BF5171201F8EF4516F5181201A921
:10007000AF171201EAAF181201EA7F301201B7225E
:100080008F088D098B0AE4F50FF510F511F512E5CF
:100090000A131313541FF50AE510C3950B504605B8
:1000A00010E50FC3950A5029050FAB0CAA0DA90E38
:1000B0008512828511831200FFFBAD09AF08120182
:1000C0005D0512E5127002051174082508F5088017
:1000D000D0E50F75F008A4FFC3E5089FF508E4F527
:1000E0000F050980B322BB010689828A83E0225072
:1000F00002E722BBFE02E32289828A83E49322BBC9
:10010000010CE58229F582E5833AF583E022500669
:10011000E92582F8E622BBFE06E92582F8E222E51F
:100120008229F582E5833AF583E493227F34120134
:10013000B7E4FEE4FDED4480FF1201B7EE4480FF1A
:100140001201B7E4FF1201EA1201EA0DBD20E60E2A
:10015000BE10E07F361201B77F300201B78D138BDE
:1001600014AA077908E9D39400401C19E514A801E2
:10017000088002C313D8FC139200300007AF02AD11
:10018000131200080A80DE22D2A3D2A47F3012010B
:10019000B77F011201B70F1201B77F0C1201B77FB1
:1001A000011201B77F060201B7ED4480FF1201B7CB
:1001B000ECC4540F4480FF1201D9C2A5C2A6D2A735
:1001C0008F80C2A722750B10750CFF750D02750E7E
:1001D0001D7B10E4FDFF020080C2A5D2A6C2A77558
:1001E00080FFD2A7E58020E7F0221201D9D2A5C274
:1001F000A6D2A78F80C2A7221201D9D2A5D2A6D299
:10020000A7AF80C2A722787FE4F6D8FD75812002CF
:10021000021212018812012C1201C580FEFFFFFE9E
:10022000FFFCFFF8FFF0FFE0FFC00180018001C08C
:0D02300001E0FFF0FFF8FFFCFFFEFFFFFF05
:00000001FF
